{
  "_format": "hh-sol-artifact-1",
  "contractName": "MyContract",
  "sourceName": "contracts/MyTest.sol",
  "abi": [
    {
      "inputs": [
        {
          "internalType": "uint256",
          "name": "x",
          "type": "uint256"
        },
        {
          "internalType": "uint256",
          "name": "y",
          "type": "uint256"
        }
      ],
      "name": "add",
      "outputs": [
        {
          "internalType": "uint256",
          "name": "",
          "type": "uint256"
        }
      ],
      "stateMutability": "pure",
      "type": "function"
    },
    {
      "inputs": [
        {
          "internalType": "uint256",
          "name": "x",
          "type": "uint256"
        },
        {
          "internalType": "uint256",
          "name": "y",
          "type": "uint256"
        }
      ],
      "name": "subtract",
      "outputs": [
        {
          "internalType": "uint256",
          "name": "",
          "type": "uint256"
        }
      ],
      "stateMutability": "pure",
      "type": "function"
    }
  ],
  "bytecode": "0x608060405234801561001057600080fd5b50610239806100206000396000f3fe608060405234801561001057600080fd5b50600436106100365760003560e01c80633ef5e4451461003b578063771602f71461006b575b600080fd5b61005560048036038101906100509190610102565b61009b565b6040516100629190610151565b60405180910390f35b61008560048036038101906100809190610102565b6100b1565b6040516100929190610151565b60405180910390f35b600081836100a9919061019b565b905092915050565b600081836100bf91906101cf565b905092915050565b600080fd5b6000819050919050565b6100df816100cc565b81146100ea57600080fd5b50565b6000813590506100fc816100d6565b92915050565b60008060408385031215610119576101186100c7565b5b6000610127858286016100ed565b9250506020610138858286016100ed565b9150509250929050565b61014b816100cc565b82525050565b60006020820190506101666000830184610142565b92915050565b7f4e487b7100000000000000000000000000000000000000000000000000000000600052601160045260246000fd5b60006101a6826100cc565b91506101b1836100cc565b92508282039050818111156101c9576101c861016c565b5b92915050565b60006101da826100cc565b91506101e5836100cc565b92508282019050808211156101fd576101fc61016c565b5b9291505056fea2646970667358221220c3f01a57e24b3daa0cd6301f3c244f3dfaf1889b0bb4f865b9a3f5cc6b49d5ca64736f6c63430008120033",
  "linkReferences": {},
  "deployedLinkReferences": {}
}