{
  "_format": "hh-sol-artifact-1",
  "contractName": "Faucet",
  "sourceName": "contracts/Faucet.sol",
  "abi": [
    {
      "inputs": [],
      "stateMutability": "nonpayable",
      "type": "constructor"
    },
    {
      "anonymous": false,
      "inputs": [
        {
          "indexed": false,
          "internalType": "address",
          "name": "",
          "type": "address"
        }
      ],
      "name": "FallbackCalled",
      "type": "event"
    },
    {
      "inputs": [],
      "name": "destroyFaucet",
      "outputs": [],
      "stateMutability": "nonpayable",
      "type": "function"
    },
    {
      "inputs": [],
      "name": "owner",
      "outputs": [
        {
          "internalType": "address",
          "name": "",
          "type": "address"
        }
      ],
      "stateMutability": "view",
      "type": "function"
    },
    {
      "inputs": [
        {
          "internalType": "uint256",
          "name": "_amount",
          "type": "uint256"
        }
      ],
      "name": "withdraw",
      "outputs": [],
      "stateMutability": "payable",
      "type": "function"
    },
    {
      "inputs": [],
      "name": "withdrawAll",
      "outputs": [],
      "stateMutability": "nonpayable",
      "type": "function"
    },
    {
      "stateMutability": "payable",
      "type": "receive"
    }
  ],
  "bytecode": "0x608060405234801561001057600080fd5b50336000806101000a81548173ffffffffffffffffffffffffffffffffffffffff021916908373ffffffffffffffffffffffffffffffffffffffff16021790555061055a806100606000396000f3fe6080604052600436106100435760003560e01c80632e1a7d4d146100865780635700c290146100a2578063853828b6146100b95780638da5cb5b146100d057610081565b36610081577ff028c523285f6d5172b4f6fd31f72f52dc757bc26a0c46239dec58b836ee67f63360405161007791906103de565b60405180910390a1005b600080fd5b6100a0600480360381019061009b9190610434565b6100fb565b005b3480156100ae57600080fd5b506100b76101c0565b005b3480156100c557600080fd5b506100ce610251565b005b3480156100dc57600080fd5b506100e5610379565b6040516100f291906103de565b60405180910390f35b67016345785d8a000081111561011057600080fd5b60003373ffffffffffffffffffffffffffffffffffffffff168260405161013690610492565b60006040518083038185875af1925050503d8060008114610173576040519150601f19603f3d011682016040523d82523d6000602084013e610178565b606091505b50509050806101bc576040517f08c379a00000000000000000000000000000000000000000000000000000000081526004016101b390610504565b60405180910390fd5b5050565b60008054906101000a900473ffffffffffffffffffffffffffffffffffffffff1673ffffffffffffffffffffffffffffffffffffffff163373ffffffffffffffffffffffffffffffffffffffff161461021857600080fd5b60008054906101000a900473ffffffffffffffffffffffffffffffffffffffff1673ffffffffffffffffffffffffffffffffffffffff16ff5b60008054906101000a900473ffffffffffffffffffffffffffffffffffffffff1673ffffffffffffffffffffffffffffffffffffffff163373ffffffffffffffffffffffffffffffffffffffff16146102a957600080fd5b60008060009054906101000a900473ffffffffffffffffffffffffffffffffffffffff1673ffffffffffffffffffffffffffffffffffffffff16476040516102f090610492565b60006040518083038185875af1925050503d806000811461032d576040519150601f19603f3d011682016040523d82523d6000602084013e610332565b606091505b5050905080610376576040517f08c379a000000000000000000000000000000000000000000000000000000000815260040161036d90610504565b60405180910390fd5b50565b60008054906101000a900473ffffffffffffffffffffffffffffffffffffffff1681565b600073ffffffffffffffffffffffffffffffffffffffff82169050919050565b60006103c88261039d565b9050919050565b6103d8816103bd565b82525050565b60006020820190506103f360008301846103cf565b92915050565b600080fd5b6000819050919050565b610411816103fe565b811461041c57600080fd5b50565b60008135905061042e81610408565b92915050565b60006020828403121561044a576104496103f9565b5b60006104588482850161041f565b91505092915050565b600081905092915050565b50565b600061047c600083610461565b91506104878261046c565b600082019050919050565b600061049d8261046f565b9150819050919050565b600082825260208201905092915050565b7f4661696c656420746f2073656e64204574686572000000000000000000000000600082015250565b60006104ee6014836104a7565b91506104f9826104b8565b602082019050919050565b6000602082019050818103600083015261051d816104e1565b905091905056fea264697066735822122009284efc5a3804d53c2de37c7f83a39700cbb554e6b093be8c2048977e7bf3ad64736f6c63430008120033",
  "linkReferences": {},
  "deployedLinkReferences": {}
}